S019000052586D6963726F636F6E74726F6C6C65722E7372656303
S11300000C9434000C9451000C9451000C94510045
S11300100C9451000C9451000C9451000C94510018
S11300200C9451000C9451000C9451000C94C70092
S11300300C9451000C9451000C9451000C945100F8
S11300400C9451000C9451000C943A010C945100FE
S11300500C9451000C9451000C9451000C945100D8
S11300600C9451000C94510011241FBECFEFD8E022
S1130070DEBFCDBF11E0A0E0B1E0E0EEF6E002C0EB
S113008005900D92AA30B107D9F721E0AAE0B1E0BA
S113009001C01D92A732B207E1F70E94B7000C9489
S11300A06E030C9400001092C50080E18093C4009C
S11300B080E98093C10086E28093C200089587B1ED
S11300C08F6787B98AB1806C8AB9809184009091D6
S11300D085008058914C909389008093880082E039
S11300E080936F0081E0809381000895CF93DF9324
S11300F0F894C82FD0E070E080E090E00E94750290
S113010020E030E04AE756E40E94010320E030E0BA
S11301104FE753E40E94D20120E030E04AE756E47E
S11301200E9466010E944402CC0FDD1FC15FDE4FB6
S1130130798368837894DF91CF9108950F931F9307
S1130140CF930FE111E0C0E0F80161918F018C2F92
S11301500E9476008FE39CE90197F1F700C000004C
S1130160CF5FC83089F7CF911F910F910895EFE1C8
S1130170F1E087E291E01192E817F907E1F70E94B4
S113018053000E945F0078940E949E00FDCF1F924E
S11301900F920FB60F9211242F933F934F935F93B7
S11301A08F939F93EF93FF93409184005091850028
S11301B090910E01E92FF0E0EE5FFE4F80812091D7
S11301C0000130910101232BE9F0963010F08BB936
S11301D001C088B9E0910E01F0E0EE0FFF1FE15F6E
S11301E0FE4F80819181840F951FE8E8F0E09183B0
S11301F0808380819181805C934690930B018093EE
S11302000A011DC0963028F09BB1809589238BB9D3
S113021004C098B18095892388B980910E018F5FBD
S1130220883019F080930E0102C010920E01809163
S11302300A0190910B01909389008093880081E0DA
S113024090E02091000130910101232B11F080E016
S113025090E09093010180930001FF91EF919F91B1
S11302608F915F914F913F912F910F900FBE0F90FF
S11302701F9018951F920F920FB60F9211242F936F
S11302808F939F93EF93FF9380910C0190910D01B5
S11302902091C600FC01E15EFE4F2083873091056A
S11302A02CF010920D0110920C0105C00196909350
S11302B00D0180930C01FF91EF919F918F912F91EC
S11302C00F900FBE0F901F9018955058BB27AA2768
S11302D00E947D010C94C7020E94B90238F00E946A
S11302E0C00220F039F49F3F19F426F40C94B602AE
S11302F00EF4E095E7FB0C94B002E92F0E94D802BB
S113030058F3BA17620773078407950720F079F446
S1130310A6F50C94FA020EF4E0950B2EBA2FA02D3C
S11303200B01B90190010C01CA01A0011124FF279E
S1130330591B99F0593F50F4503E68F11A16F04099
S1130340A22F232F342F4427585FF3CF4695379598
S11303502795A795F0405395C9F77EF41F16BA0B5D
S1130360620B730B840BBAF09150A1F0FF0FBB1F0B
S1130370661F771F881FC2F70EC0BA0F621F731F54
S1130380841F48F4879577956795B795F7959E3FB1
S113039008F0B0CF9395880F08F09927EE0F979542
S11303A0879508950E94E6010C94C7020E94C0023A
S11303B058F00E94B90240F029F45F3F29F00C94F0
S11303C0B00251110C94FB020C94B6020E94D802A4
S11303D068F39923B1F3552391F3951B550BBB2770
S11303E0AA2762177307840738F09F5F5F4F220FB5
S11303F0331F441FAA1FA9F335D00E2E3AF0E0E8AC
S113040032D091505040E695001CCAF72BD0FE2FF5
S113041029D0660F771F881FBB1F26173707480789
S1130420AB07B0E809F0BB0B802DBF01FF27935841
S11304305F4F3AF09E3F510578F00C94B0020C9453
S1130440FB025F3FE4F3983ED4F386957795679576
S1130450B795F7959F5FC9F7880F911D9695879576
S113046097F90895E1E0660F771F881FBB1F621795
S113047073078407BA0720F0621B730B840BBA0B53
S1130480EE1F88F7E09508950E94E00288F09F57D8
S113049098F0B92F9927B751B0F0E1F0660F771FA4
S11304A0881F991F1AF0BA95C9F714C0B13091F09A
S11304B00E94FA02B1E008950C94FA02672F782F93
S11304C08827B85F39F0B93FCCF38695779567955F
S11304D0B395D9F73EF490958095709561957F4FCB
S11304E08F4F9F4F0895E89409C097FB3EF4909571
S11304F08095709561957F4F8F4F9F4F9923A9F0F9
S1130500F92F96E9BB279395F69587957795679587
S1130510B795F111F8CFFAF4BB0F11F460FF1BC0CB
S11305206F5F7F4F8F4F9F4F16C0882311F096E95E
S113053011C0772321F09EE8872F762F05C066230C
S113054071F096E8862F70E060E02AF09A95660FC5
S1130550771F881FDAF7880F9695879597F908957E
S113056097F99F6780E870E060E008959FEF80EC62
S1130570089500240A941616170618060906089505
S113058000240A9412161306140605060895092E6B
S11305900394000C11F4882352F0BB0F40F4BF2BDA
S11305A011F460FF04C06F5F7F4F8F4F9F4F08951A
S11305B057FD9058440F551F59F05F3F71F0479510
S11305C0880F97FB991F61F09F3F79F087950895F5
S11305D0121613061406551FF2CF4695F1DF08C014
S11305E0161617061806991FF1CF86957105610531
S11305F008940895E894BB2766277727CB0197F9D9
S113060008950E9414030C94C7020E94B90238F0A2
S11306100E94C00220F0952311F00C94B0020C94B7
S1130620B60211240C94FB020E94D80270F3959F29
S1130630C1F3950F50E0551F629FF001729FBB27D5
S1130640F00DB11D639FAA27F00DB11DAA1F649F71
S11306506627B00DA11D661F829F2227B00DA11D24
S1130660621F739FB00DA11D621F839FA00D611DAA
S1130670221F749F3327A00D611D231F849F600DCB
S1130680211D822F762F6A2F11249F5750409AF0F4
S1130690F1F088234AF0EE0FFF1FBB1F661F771F80
S11306A0881F91505040A9F79E3F510580F00C944B
S11306B0B0020C94FB025F3FE4F3983ED4F38695BA
S11306C077956795B795F795E7959F5FC1F7FE2BEB
S11306D0880F911D9695879597F90895F894FFCF03
S10D06E0010001020408102040800C
S9030000FC
